{
  "contractName": "BNBminer10",
  "abi": [
    {
      "inputs": [],
      "stateMutability": "nonpayable",
      "type": "constructor"
    },
    {
      "anonymous": false,
      "inputs": [
        {
          "indexed": true,
          "internalType": "address",
          "name": "user",
          "type": "address"
        },
        {
          "indexed": false,
          "internalType": "uint256",
          "name": "eggsBought",
          "type": "uint256"
        },
        {
          "indexed": false,
          "internalType": "uint256",
          "name": "amountSpent",
          "type": "uint256"
        }
      ],
      "name": "EggsBaked",
      "type": "event"
    },
    {
      "anonymous": false,
      "inputs": [
        {
          "indexed": true,
          "internalType": "address",
          "name": "user",
          "type": "address"
        },
        {
          "indexed": false,
          "internalType": "uint256",
          "name": "eggsSold",
          "type": "uint256"
        },
        {
          "indexed": false,
          "internalType": "uint256",
          "name": "reward",
          "type": "uint256"
        },
        {
          "indexed": false,
          "internalType": "uint256",
          "name": "fee",
          "type": "uint256"
        }
      ],
      "name": "EggsEaten",
      "type": "event"
    },
    {
      "anonymous": false,
      "inputs": [
        {
          "indexed": true,
          "internalType": "address",
          "name": "user",
          "type": "address"
        },
        {
          "indexed": true,
          "internalType": "address",
          "name": "ref",
          "type": "address"
        },
        {
          "indexed": false,
          "internalType": "uint256",
          "name": "eggsUsed",
          "type": "uint256"
        },
        {
          "indexed": false,
          "internalType": "uint256",
          "name": "newMiners",
          "type": "uint256"
        }
      ],
      "name": "EggsRebaked",
      "type": "event"
    },
    {
      "inputs": [],
      "name": "EGGS_TO_HATCH_1MINERS",
      "outputs": [
        {
          "internalType": "uint256",
          "name": "",
          "type": "uint256"
        }
      ],
      "stateMutability": "view",
      "type": "function",
      "constant": true
    },
    {
      "inputs": [],
      "name": "PSN",
      "outputs": [
        {
          "internalType": "uint256",
          "name": "",
          "type": "uint256"
        }
      ],
      "stateMutability": "view",
      "type": "function",
      "constant": true
    },
    {
      "inputs": [],
      "name": "PSNH",
      "outputs": [
        {
          "internalType": "uint256",
          "name": "",
          "type": "uint256"
        }
      ],
      "stateMutability": "view",
      "type": "function",
      "constant": true
    },
    {
      "inputs": [],
      "name": "ceoAddress",
      "outputs": [
        {
          "internalType": "address",
          "name": "",
          "type": "address"
        }
      ],
      "stateMutability": "view",
      "type": "function",
      "constant": true
    },
    {
      "inputs": [
        {
          "internalType": "address",
          "name": "",
          "type": "address"
        }
      ],
      "name": "claimedEggs",
      "outputs": [
        {
          "internalType": "uint256",
          "name": "",
          "type": "uint256"
        }
      ],
      "stateMutability": "view",
      "type": "function",
      "constant": true
    },
    {
      "inputs": [
        {
          "internalType": "address",
          "name": "",
          "type": "address"
        }
      ],
      "name": "hatcheryMiners",
      "outputs": [
        {
          "internalType": "uint256",
          "name": "",
          "type": "uint256"
        }
      ],
      "stateMutability": "view",
      "type": "function",
      "constant": true
    },
    {
      "inputs": [],
      "name": "initialized",
      "outputs": [
        {
          "internalType": "bool",
          "name": "",
          "type": "bool"
        }
      ],
      "stateMutability": "view",
      "type": "function",
      "constant": true
    },
    {
      "inputs": [
        {
          "internalType": "address",
          "name": "",
          "type": "address"
        }
      ],
      "name": "lastHatch",
      "outputs": [
        {
          "internalType": "uint256",
          "name": "",
          "type": "uint256"
        }
      ],
      "stateMutability": "view",
      "type": "function",
      "constant": true
    },
    {
      "inputs": [],
      "name": "marketEggs",
      "outputs": [
        {
          "internalType": "uint256",
          "name": "",
          "type": "uint256"
        }
      ],
      "stateMutability": "view",
      "type": "function",
      "constant": true
    },
    {
      "inputs": [
        {
          "internalType": "address",
          "name": "",
          "type": "address"
        }
      ],
      "name": "referrals",
      "outputs": [
        {
          "internalType": "address",
          "name": "",
          "type": "address"
        }
      ],
      "stateMutability": "view",
      "type": "function",
      "constant": true
    },
    {
      "inputs": [
        {
          "internalType": "address",
          "name": "ref",
          "type": "address"
        }
      ],
      "name": "rebakePizza",
      "outputs": [],
      "stateMutability": "nonpayable",
      "type": "function"
    },
    {
      "inputs": [],
      "name": "eatPizza",
      "outputs": [],
      "stateMutability": "nonpayable",
      "type": "function"
    },
    {
      "inputs": [
        {
          "internalType": "address",
          "name": "ref",
          "type": "address"
        }
      ],
      "name": "bakePizza",
      "outputs": [],
      "stateMutability": "payable",
      "type": "function",
      "payable": true
    },
    {
      "inputs": [
        {
          "internalType": "uint256",
          "name": "rt",
          "type": "uint256"
        },
        {
          "internalType": "uint256",
          "name": "rs",
          "type": "uint256"
        },
        {
          "internalType": "uint256",
          "name": "bs",
          "type": "uint256"
        }
      ],
      "name": "calculateTrade",
      "outputs": [
        {
          "internalType": "uint256",
          "name": "",
          "type": "uint256"
        }
      ],
      "stateMutability": "pure",
      "type": "function",
      "constant": true
    },
    {
      "inputs": [
        {
          "internalType": "uint256",
          "name": "eggs",
          "type": "uint256"
        }
      ],
      "name": "calculateEggSell",
      "outputs": [
        {
          "internalType": "uint256",
          "name": "",
          "type": "uint256"
        }
      ],
      "stateMutability": "view",
      "type": "function",
      "constant": true
    },
    {
      "inputs": [
        {
          "internalType": "uint256",
          "name": "eth",
          "type": "uint256"
        },
        {
          "internalType": "uint256",
          "name": "contractBalance",
          "type": "uint256"
        }
      ],
      "name": "calculateEggBuy",
      "outputs": [
        {
          "internalType": "uint256",
          "name": "",
          "type": "uint256"
        }
      ],
      "stateMutability": "view",
      "type": "function",
      "constant": true
    },
    {
      "inputs": [
        {
          "internalType": "uint256",
          "name": "eth",
          "type": "uint256"
        }
      ],
      "name": "calculateEggBuySimple",
      "outputs": [
        {
          "internalType": "uint256",
          "name": "",
          "type": "uint256"
        }
      ],
      "stateMutability": "view",
      "type": "function",
      "constant": true
    },
    {
      "inputs": [
        {
          "internalType": "uint256",
          "name": "amount",
          "type": "uint256"
        }
      ],
      "name": "devFee",
      "outputs": [
        {
          "internalType": "uint256",
          "name": "",
          "type": "uint256"
        }
      ],
      "stateMutability": "pure",
      "type": "function",
      "constant": true
    },
    {
      "inputs": [],
      "name": "openKitchen",
      "outputs": [],
      "stateMutability": "payable",
      "type": "function",
      "payable": true
    },
    {
      "inputs": [],
      "name": "getBalance",
      "outputs": [
        {
          "internalType": "uint256",
          "name": "",
          "type": "uint256"
        }
      ],
      "stateMutability": "view",
      "type": "function",
      "constant": true
    },
    {
      "inputs": [],
      "name": "getMyMiners",
      "outputs": [
        {
          "internalType": "uint256",
          "name": "",
          "type": "uint256"
        }
      ],
      "stateMutability": "view",
      "type": "function",
      "constant": true
    },
    {
      "inputs": [],
      "name": "getMyEggs",
      "outputs": [
        {
          "internalType": "uint256",
          "name": "",
          "type": "uint256"
        }
      ],
      "stateMutability": "view",
      "type": "function",
      "constant": true
    },
    {
      "inputs": [
        {
          "internalType": "address",
          "name": "adr",
          "type": "address"
        }
      ],
      "name": "getEggsSinceLastHatch",
      "outputs": [
        {
          "internalType": "uint256",
          "name": "",
          "type": "uint256"
        }
      ],
      "stateMutability": "view",
      "type": "function",
      "constant": true
    }
  ],
  "bytecode": "0x608060405260008060006101000a81548160ff02191690831515021790555034801561002a57600080fd5b5033600060016101000a81548173ffffffffffffffffffffffffffffffffffffffff021916908373ffffffffffffffffffffffffffffffffffffffff1602179055506117308061007b6000396000f3fe6080604052600436106101405760003560e01c806354f75631116100b65780638e3163271161006f5780638e316327146104695780639ca423b3146104a6578063cf7eb397146104e3578063d7c8843b1461050e578063e00a96631461054b578063f7fb81681461057457610140565b806354f7563114610352578063726703611461037d57806379532aa9146103ba5780637cdebc21146103f75780637e56fde514610422578063847349ef1461045f57610140565b8063229824c411610108578063229824c41461020857806326fd8422146102455780632e9392bb146102825780633bc0461a146102ad57806343ce7422146102ea578063467ece791461031557610140565b806309e1a83d146101455780630a0f81681461015c5780630a76e5ed1461018757806312065fe0146101b2578063158ef93e146101dd575b600080fd5b34801561015157600080fd5b5061015a610590565b005b34801561016857600080fd5b506101716107c2565b60405161017e91906113ef565b60405180910390f35b34801561019357600080fd5b5061019c6107e8565b6040516101a99190611485565b60405180910390f35b3480156101be57600080fd5b506101c761082f565b6040516101d49190611485565b60405180910390f35b3480156101e957600080fd5b506101f2610837565b6040516101ff919061140a565b60405180910390f35b34801561021457600080fd5b5061022f600480360381019061022a91906112b3565b610848565b60405161023c9190611485565b60405180910390f35b34801561025157600080fd5b5061026c60048036038101906102679190611277565b6108a9565b6040516102799190611485565b60405180910390f35b34801561028e57600080fd5b506102976108c0565b6040516102a49190611485565b60405180910390f35b3480156102b957600080fd5b506102d460048036038101906102cf919061124e565b6108c6565b6040516102e19190611485565b60405180910390f35b3480156102f657600080fd5b506102ff6108e8565b60405161030c9190611485565b60405180910390f35b34801561032157600080fd5b5061033c60048036038101906103379190611225565b610942565b6040516103499190611485565b60405180910390f35b34801561035e57600080fd5b5061036761095a565b6040516103749190611485565b60405180910390f35b34801561038957600080fd5b506103a4600480360381019061039f9190611225565b610960565b6040516103b19190611485565b60405180910390f35b3480156103c657600080fd5b506103e160048036038101906103dc9190611225565b610978565b6040516103ee9190611485565b60405180910390f35b34801561040357600080fd5b5061040c610990565b6040516104199190611485565b60405180910390f35b34801561042e57600080fd5b506104496004803603810190610444919061124e565b610997565b6040516104569190611485565b60405180910390f35b6104676109aa565b005b34801561047557600080fd5b50610490600480360381019061048b919061124e565b610aa7565b60405161049d9190611485565b60405180910390f35b3480156104b257600080fd5b506104cd60048036038101906104c89190611225565b610abd565b6040516104da91906113ef565b60405180910390f35b3480156104ef57600080fd5b506104f8610af0565b6040516105059190611485565b60405180910390f35b34801561051a57600080fd5b5061053560048036038101906105309190611225565b610af6565b6040516105429190611485565b60405180910390f35b34801561055757600080fd5b50610572600480360381019061056d9190611225565b610ba5565b005b61058e60048036038101906105899190611225565b61103c565b005b60008054906101000a900460ff166105dd576040517f08c379a00000000000000000000000000000000000000000000000000000000081526004016105d490611425565b60405180910390fd5b60006105e76108e8565b905060006105f482610aa7565b90506000610601826108c6565b90506000600260003373ffffffffffffffffffffffffffffffffffffffff1673ffffffffffffffffffffffffffffffffffffffff1681526020019081526020016000208190555042600360003373ffffffffffffffffffffffffffffffffffffffff1673ffffffffffffffffffffffffffffffffffffffff16815260200190815260200160002081905550826005600082825461069e9190611511565b92505081905550600060019054906101000a900473ffffffffffffffffffffffffffffffffffffffff1673ffffffffffffffffffffffffffffffffffffffff166108fc829081150290604051600060405180830381858888f1935050505015801561070d573d6000803e3d6000fd5b503373ffffffffffffffffffffffffffffffffffffffff166108fc828461073491906115f2565b9081150290604051600060405180830381858888f1935050505015801561075f573d6000803e3d6000fd5b503373ffffffffffffffffffffffffffffffffffffffff167f1cb6c21e68ed1170c3b5d35971b3a5ce7eef8f985b90ebf3d3c5ff5efce479c48483856107a591906115f2565b846040516107b5939291906114c9565b60405180910390a2505050565b600060019054906101000a900473ffffffffffffffffffffffffffffffffffffffff1681565b6000600160003373ffffffffffffffffffffffffffffffffffffffff1673ffffffffffffffffffffffffffffffffffffffff16815260200190815260200160002054905090565b600047905090565b60008054906101000a900460ff1681565b600083846113886108599190611598565b846127106108679190611598565b6108719190611511565b61087b9190611567565b6113886108889190611511565b826127106108969190611598565b6108a09190611567565b90509392505050565b60006108b88383600554610848565b905092915050565b60055481565b600060646007836108d79190611598565b6108e19190611567565b9050919050565b60006108f333610af6565b600260003373ffffffffffffffffffffffffffffffffffffffff1673ffffffffffffffffffffffffffffffffffffffff1681526020019081526020016000205461093d9190611511565b905090565b60036020528060005260406000206000915090505481565b61271081565b60026020528060005260406000206000915090505481565b60016020528060005260406000206000915090505481565b620d2f0081565b60006109a382476108a9565b9050919050565b600060019054906101000a900473ffffffffffffffffffffffffffffffffffffffff1673ffffffffffffffffffffffffffffffffffffffff163373ffffffffffffffffffffffffffffffffffffffff1614610a3a576040517f08c379a0000000000000000000000000000000000000000000000000000000008152600401610a3190611445565b60405180910390fd5b600060055414610a7f576040517f08c379a0000000000000000000000000000000000000000000000000000000008152600401610a7690611465565b60405180910390fd5b60016000806101000a81548160ff02191690831515021790555064141dd76000600581905550565b6000610ab68260055447610848565b9050919050565b60046020528060005260406000206000915054906101000a900473ffffffffffffffffffffffffffffffffffffffff1681565b61138881565b600080610b50620d2f00600360008673ffffffffffffffffffffffffffffffffffffffff1673ffffffffffffffffffffffffffffffffffffffff1681526020019081526020016000205442610b4b91906115f2565b6111e2565b9050600160008473ffffffffffffffffffffffffffffffffffffffff1673ffffffffffffffffffffffffffffffffffffffff1681526020019081526020016000205481610b9d9190611598565b915050919050565b60008054906101000a900460ff16610bf2576040517f08c379a0000000000000000000000000000000000000000000000000000000008152600401610be990611425565b60405180910390fd5b3373ffffffffffffffffffffffffffffffffffffffff168173ffffffffffffffffffffffffffffffffffffffff161480610c585750600073ffffffffffffffffffffffffffffffffffffffff168173ffffffffffffffffffffffffffffffffffffffff16145b80610ca257506000600160008373ffffffffffffffffffffffffffffffffffffffff1673ffffffffffffffffffffffffffffffffffffffff16815260200190815260200160002054145b15610ccd57600060019054906101000a900473ffffffffffffffffffffffffffffffffffffffff1690505b600073ffffffffffffffffffffffffffffffffffffffff16600460003373ffffffffffffffffffffffffffffffffffffffff1673ffffffffffffffffffffffffffffffffffffffff16815260200190815260200160002060009054906101000a900473ffffffffffffffffffffffffffffffffffffffff1673ffffffffffffffffffffffffffffffffffffffff161415610de05780600460003373ffffffffffffffffffffffffffffffffffffffff1673ffffffffffffffffffffffffffffffffffffffff16815260200190815260200160002060006101000a81548173ffffffffffffffffffffffffffffffffffffffff021916908373ffffffffffffffffffffffffffffffffffffffff1602179055505b6000610dea6108e8565b90506000620d2f0082610dfd9190611567565b905080600160003373ffffffffffffffffffffffffffffffffffffffff1673ffffffffffffffffffffffffffffffffffffffff1681526020019081526020016000206000828254610e4e9190611511565b925050819055506000600260003373ffffffffffffffffffffffffffffffffffffffff1673ffffffffffffffffffffffffffffffffffffffff1681526020019081526020016000208190555042600360003373ffffffffffffffffffffffffffffffffffffffff1673ffffffffffffffffffffffffffffffffffffffff168152602001908152602001600020819055506064600f83610eed9190611598565b610ef79190611567565b60026000600460003373ffffffffffffffffffffffffffffffffffffffff1673ffffffffffffffffffffffffffffffffffffffff16815260200190815260200160002060009054906101000a900473ffffffffffffffffffffffffffffffffffffffff1673ffffffffffffffffffffffffffffffffffffffff1673ffffffffffffffffffffffffffffffffffffffff1681526020019081526020016000206000828254610fa49190611511565b92505081905550600382610fb89190611567565b60056000828254610fc99190611511565b925050819055508273ffffffffffffffffffffffffffffffffffffffff163373ffffffffffffffffffffffffffffffffffffffff167f247d15671619141ba9ff5be8ff87038a15e6857d1f7d5f8a065f43291b57f3c8848460405161102f9291906114a0565b60405180910390a3505050565b60008054906101000a900460ff16611089576040517f08c379a000000000000000000000000000000000000000000000000000000000815260040161108090611425565b60405180910390fd5b60006110a034344761109b91906115f2565b6108a9565b905060006110ad346108c6565b90506110b8826108c6565b826110c391906115f2565b9150600060019054906101000a900473ffffffffffffffffffffffffffffffffffffffff1673ffffffffffffffffffffffffffffffffffffffff166108fc829081150290604051600060405180830381858888f1935050505015801561112d573d6000803e3d6000fd5b5081600260003373ffffffffffffffffffffffffffffffffffffffff1673ffffffffffffffffffffffffffffffffffffffff168152602001908152602001600020600082825461117d9190611511565b9250508190555061118d83610ba5565b3373ffffffffffffffffffffffffffffffffffffffff167ff9bd0b932a8ff3a36e79b6d2f671f67bfa4dd1549894f67b36b25ec5d4c5759983346040516111d59291906114a0565b60405180910390a2505050565b60008183106111f157816111f3565b825b905092915050565b60008135905061120a816116cc565b92915050565b60008135905061121f816116e3565b92915050565b60006020828403121561123757600080fd5b6000611245848285016111fb565b91505092915050565b60006020828403121561126057600080fd5b600061126e84828501611210565b91505092915050565b6000806040838503121561128a57600080fd5b600061129885828601611210565b92505060206112a985828601611210565b9150509250929050565b6000806000606084860312156112c857600080fd5b60006112d686828701611210565b93505060206112e786828701611210565b92505060406112f886828701611210565b9150509250925092565b61130b81611626565b82525050565b61131a81611638565b82525050565b600061132d601a83611500565b91507f4d61726b6574206e6f7420696e697469616c697a6564207965740000000000006000830152602082019050919050565b600061136d601583611500565b91507f43616c6c6572206973206e6f74207468652043454f00000000000000000000006000830152602082019050919050565b60006113ad601a83611500565b91507f4d61726b657420616c726561647920696e697469616c697a65640000000000006000830152602082019050919050565b6113e981611664565b82525050565b60006020820190506114046000830184611302565b92915050565b600060208201905061141f6000830184611311565b92915050565b6000602082019050818103600083015261143e81611320565b9050919050565b6000602082019050818103600083015261145e81611360565b9050919050565b6000602082019050818103600083015261147e816113a0565b9050919050565b600060208201905061149a60008301846113e0565b92915050565b60006040820190506114b560008301856113e0565b6114c260208301846113e0565b9392505050565b60006060820190506114de60008301866113e0565b6114eb60208301856113e0565b6114f860408301846113e0565b949350505050565b600082825260208201905092915050565b600061151c82611664565b915061152783611664565b9250827fffffffffffffffffffffffffffffffffffffffffffffffffffffffffffffffff0382111561155c5761155b61166e565b5b828201905092915050565b600061157282611664565b915061157d83611664565b92508261158d5761158c61169d565b5b828204905092915050565b60006115a382611664565b91506115ae83611664565b9250817fffffffffffffffffffffffffffffffffffffffffffffffffffffffffffffffff04831182151516156115e7576115e661166e565b5b828202905092915050565b60006115fd82611664565b915061160883611664565b92508282101561161b5761161a61166e565b5b828203905092915050565b600061163182611644565b9050919050565b60008115159050919050565b600073ffffffffffffffffffffffffffffffffffffffff82169050919050565b6000819050919050565b7f4e487b7100000000000000000000000000000000000000000000000000000000600052601160045260246000fd5b7f4e487b7100000000000000000000000000000000000000000000000000000000600052601260045260246000fd5b6116d581611626565b81146116e057600080fd5b50565b6116ec81611664565b81146116f757600080fd5b5056fea26469706673582212205c3623fdd813377109b7238fa21e9cd0d2f2a3aad4fb89ef3d248ee40048501664736f6c63430008000033",
  "immutableReferences": {},
  "source": "// SPDX-License-Identifier: MIT\r\npragma solidity ^0.8.0;\r\n\r\ncontract BNBminer10 {\r\n    uint256 public constant EGGS_TO_HATCH_1MINERS = 864000;\r\n    uint256 public constant PSN = 10000;\r\n    uint256 public constant PSNH = 5000;\r\n    bool public initialized = false;\r\n    address public ceoAddress;\r\n\r\n    mapping(address => uint256) public hatcheryMiners;\r\n    mapping(address => uint256) public claimedEggs;\r\n    mapping(address => uint256) public lastHatch;\r\n    mapping(address => address) public referrals;\r\n    uint256 public marketEggs;\r\n\r\n    event EggsRebaked(address indexed user, address indexed ref, uint256 eggsUsed, uint256 newMiners);\r\n    event EggsEaten(address indexed user, uint256 eggsSold, uint256 reward, uint256 fee);\r\n    event EggsBaked(address indexed user, uint256 eggsBought, uint256 amountSpent);\r\n\r\n    constructor() {\r\n        ceoAddress = msg.sender;\r\n    }\r\n\r\n    modifier onlyInitialized() {\r\n        require(initialized, \"Market not initialized yet\");\r\n        _;\r\n    }\r\n\r\n    modifier onlyCEO() {\r\n        require(msg.sender == ceoAddress, \"Caller is not the CEO\");\r\n        _;\r\n    }\r\n\r\n    function rebakePizza(address ref) public onlyInitialized {\r\n        if (ref == msg.sender || ref == address(0) || hatcheryMiners[ref] == 0) {\r\n            ref = ceoAddress;\r\n        }\r\n        if (referrals[msg.sender] == address(0)) {\r\n            referrals[msg.sender] = ref;\r\n        }\r\n\r\n        uint256 eggsUsed = getMyEggs();\r\n        uint256 newMiners = eggsUsed / EGGS_TO_HATCH_1MINERS;\r\n        hatcheryMiners[msg.sender] += newMiners;\r\n        claimedEggs[msg.sender] = 0;\r\n        lastHatch[msg.sender] = block.timestamp;\r\n\r\n        // Send referral eggs\r\n        claimedEggs[referrals[msg.sender]] += (eggsUsed * 15) / 100;\r\n\r\n        // Boost market to nerf miners hoarding\r\n        marketEggs += eggsUsed / 3;\r\n\r\n        emit EggsRebaked(msg.sender, ref, eggsUsed, newMiners);\r\n    }\r\n\r\n    function eatPizza() public onlyInitialized {\r\n        uint256 hasEggs = getMyEggs();\r\n        uint256 eggValue = calculateEggSell(hasEggs);\r\n        uint256 fee = devFee(eggValue);\r\n        claimedEggs[msg.sender] = 0;\r\n        lastHatch[msg.sender] = block.timestamp;\r\n        marketEggs += hasEggs;\r\n\r\n        payable(ceoAddress).transfer(fee);\r\n        payable(msg.sender).transfer(eggValue - fee);\r\n\r\n        emit EggsEaten(msg.sender, hasEggs, eggValue - fee, fee);\r\n    }\r\n\r\n    function bakePizza(address ref) public payable onlyInitialized {\r\n        uint256 eggsBought = calculateEggBuy(msg.value, address(this).balance - msg.value);\r\n        uint256 fee = devFee(msg.value);\r\n        eggsBought -= devFee(eggsBought);\r\n\r\n        payable(ceoAddress).transfer(fee);\r\n        claimedEggs[msg.sender] += eggsBought;\r\n\r\n        rebakePizza(ref);\r\n        emit EggsBaked(msg.sender, eggsBought, msg.value);\r\n    }\r\n\r\n    function calculateTrade(uint256 rt, uint256 rs, uint256 bs) public pure returns (uint256) {\r\n        return (PSN * bs) / (PSNH + ((PSN * rs + PSNH * rt) / rt));\r\n    }\r\n\r\n    function calculateEggSell(uint256 eggs) public view returns (uint256) {\r\n        return calculateTrade(eggs, marketEggs, address(this).balance);\r\n    }\r\n\r\n    function calculateEggBuy(uint256 eth, uint256 contractBalance) public view returns (uint256) {\r\n        return calculateTrade(eth, contractBalance, marketEggs);\r\n    }\r\n\r\n    function calculateEggBuySimple(uint256 eth) public view returns (uint256) {\r\n        return calculateEggBuy(eth, address(this).balance);\r\n    }\r\n\r\n    function devFee(uint256 amount) public pure returns (uint256) {\r\n        return (amount * 7) / 100;\r\n    }\r\n\r\n    function openKitchen() public payable onlyCEO {\r\n        require(marketEggs == 0, \"Market already initialized\");\r\n        initialized = true;\r\n        marketEggs = 86400000000;\r\n    }\r\n\r\n    function getBalance() public view returns (uint256) {\r\n        return address(this).balance;\r\n    }\r\n\r\n    function getMyMiners() public view returns (uint256) {\r\n        return hatcheryMiners[msg.sender];\r\n    }\r\n\r\n    function getMyEggs() public view returns (uint256) {\r\n        return claimedEggs[msg.sender] + getEggsSinceLastHatch(msg.sender);\r\n    }\r\n\r\n    function getEggsSinceLastHatch(address adr) public view returns (uint256) {\r\n        uint256 secondsPassed = min(EGGS_TO_HATCH_1MINERS, block.timestamp - lastHatch[adr]);\r\n        return secondsPassed * hatcheryMiners[adr];\r\n    }\r\n\r\n    function min(uint256 a, uint256 b) private pure returns (uint256) {\r\n        return a < b ? a : b;\r\n    }\r\n}",
  "sourcePath": "C:\\Users\\PMLS\\Desktop\\fiver projects\\project1\\contracts\\BNBminer10.sol",
  "compiler": {
    "name": "solc",
    "version": "0.8.0+commit.c7dfd78e.Emscripten.clang"
  },
  "schemaVersion": "3.4.16",
  "updatedAt": "2025-01-12T06:10:02.639Z",
  "networkType": "ethereum",
  "devdoc": {
    "kind": "dev",
    "methods": {},
    "version": 1
  },
  "userdoc": {
    "kind": "user",
    "methods": {},
    "version": 1
  }
}